:020000040800F2
:10000000E81100200101000869170008E70E000848
:1000100065170008FD0300086F28000800000000B5
:100020000000000000000000000000005122000855
:1000300021040008000000003B21000815240008EE
:100040001B0100081B0100081B0100081B01000820
:100050001B0100081B0100081B0100081B01000810
:100060001B0100081B0100081B0100081B01000800
:100070001B0100081B0100081B0100081B010008F0
:100080001B0100081B0100081B0100081B010008E0
:100090001B0100081B0100081B010008F5040008F3
:1000A0001B0100081B0100081B0100081B010008C0
:1000B000792400081B0100081B0100081B0100082F
:1000C0001B0100081B0100081B0100081B010008A0
:1000D0001B010008712600081B0100081B01000815
:1000E000250400081B0100081B010008DFF80CD0E4
:1000F00000F02AF900480047FD2D0008E811002013
:100100000648804706480047FEE7FEE7FEE7FEE7B1
:10011000FEE7FEE7FEE7FEE7FEE7FEE7192400083C
:10012000ED000008F0B480EA0102D40F4200B2EB07
:10013000410F02D20246084611464A0042D0C30D82
:10014000DDB2C1F3C752AD1A202D35DAC1F3160165
:1001500041F4000204B15242C5F1200602FA06F150
:100160002A411044B3EBD05F23D0C4B1012DA0EBE2
:10017000C35009DCF0BC4FF0004202EAC352DBB2CC
:1001800000F5000000F0B1B8400000F1807000EB15
:10019000C350A0F1807040EAD170490009E04908DD
:1001A00041EAC071A0EBC35000F50000400800EB2D
:1001B000C350F0BC00F090B86142012202EB410153
:1001C000001BF6E7F0BC704781F00041AAE780F021
:1001D0000040A7E730B480EA010202F0004530F0A9
:1001E000004221F0004013D090B1C30DD40DC2F3F2
:1001F0001601C0F31600E41A41F4000140F40002B5
:100200007D34914201D3641C00E04900002C02DAE5
:1002100030BC002070474FF400000023914201D30E
:10022000891A034340084FEA4101F7D151B1914285
:1002300002D14FF0004105E002D24FF0010101E090
:100240006FF0010103EBC450284430BC00F044B807
:1002500096230022114600F048B820F00040C10D5E
:10026000C0F3160040F400007F2901DA0020704737
:10027000962903DCC1F19601C84070479639884041
:1002800070470000002801DBC0F10040002901DBBD
:10029000C1F1004181427047002801DBC0F10040FC
:1002A000002901DBC1F100418842704730B50B469F
:1002B000014600202022012409E021FA02F59D4296
:1002C00005D303FA02F5491B04FA02F52844151E6A
:1002D000A2F10102F1DC30BD0029A8BF7047401C2B
:1002E000490008BF20F00100704710B4B0FA80FC4C
:1002F00000FA0CF050EA010404BF10BC704749B189
:10030000CCF1200421FA04F411FA0CF118BF0121F8
:1003100021430843A3EB0C01CB1D4FEA00614FEAD8
:10032000102042BF002010BC704700EBC3501044A7
:100330000029A4BF10BC7047401C490008BF20F032
:10034000010010BC70470000064C074D06E0E06855
:1003500040F0010394E8070098471034AC42F6D30C
:10036000FFF7C8FE403A0008603A000870B58C18E4
:1003700010F8015B15F0070301D110F8013B2A11B9
:1003800006D110F8012B03E010F8016B01F8016BA6
:100390005B1EF9D12B0705D40023521E0DD401F8A2
:1003A000013BFAE710F8013BCB1A921C03E013F86B
:1003B000015B01F8015B521EF9D5A142D8D30020A0
:1003C00070BD000008B50121042001F0C7FE4FF404
:1003D0008070ADF8000010208DF8030003208DF828
:1003E00002006946044800F09DFC4FF48071024809
:1003F00000F075FD08BD00000008014000BFFEE7E9
:1004000070B50446204600F01FFA0546FFF720FFAE
:10041000024908600846006870BD00005C000020CA
:100420007047000010B54FF4006000F0D7F8C8B175
:100430000A2002F0F3FB4FF40061294800F046FD6A
:1004400060B900BF4FF40061254800F03FFD00286F
:10045000F8D0012023490860234908704FF4006058
:1004600000F0B6F84FF4805000F0B8F8B8B10A20A8
:1004700002F0D4FB4FF48051194800F027FD50B929
:1004800000BF4FF48051164800F020FD0028F8D03E
:100490000120164908704FF4805000F099F84FF48D
:1004A000004000F09BF8C8B10A2002F0B7FB4FF4FF
:1004B00000410B4800F00AFD60B900BF4FF4004155
:1004C000074800F003FD0028F8D001200849086023
:1004D000054908704FF4004000F07AF810BD0000A4
:1004E0000008014024000020040000200500002036
:1004F0002800002010B5802000F070F800B30A201A
:1005000002F08CFB80212B4800F0E0FCA8B900BF72
:100510008021284800F0DAFC0028F9D04FF0FF30A5
:1005200025490860002025490860012024490870F9
:1005300000202449087024490870802000F048F801
:10054000202000F04BF8C0B10A2002F067FB202108
:10055000184800F0BBFC68B900BF2021154800F026
:10056000B5FC0028F9D04FF0FF3018490860012091
:1005700013490870202000F02BF8402000F02EF8DE
:10058000B0B10A2002F04AFB40210A4800F09EFC6C
:1005900058B900BF4021074800F098FC0028F9D066
:1005A00001200549086006490870402000F010F855
:1005B00010BD0000000C01402C0000202400002091
:1005C0000400002006000020070000202800002072
:1005D00001490860704700001404014001460020F2
:1005E0000022074B1B6803EA0102054B14331B680A
:1005F0000B4013B10AB1012000E000207047000059
:1006000000040140002123498279002A3AD00A4699
:10061000126803689A430B461A600A1D1268036841
:100620009A430B1D1A60027911440A6803681A4341
:100630000A60184A0832126803689A43154B083357
:100640001A601A1D126803689A43124B0C331A6021
:100650004279102A0ED11A1F126803681A430D4BF3
:1006600008331A601A1D126803681A43094B0C33C9
:100670001A600DE00749427911440A6803681A4379
:100680000A6005E0027911440A6803689A430A6027
:10069000704700000004014010B500F0EFFA38493F
:1006A000086038480078062858D2DFE800F00311C7
:1006B0001F2D3B4932480068334908602822042135
:1006C0000C2001F045FB3021002002F0DFF946E06C
:1006D0002B4800682C494860262204211C2001F088
:1006E00037FB3121002002F0D1F938E024480068BE
:1006F00025498860262204212C2001F029FB322183
:10070000002002F0C3F92AE01D4800681E49C860B5
:10071000262204213C2001F01BFB3321002002F0A3
:10072000B5F91CE016480068174908612622042123
:100730004C2001F00DFB3421002002F0A7F90EE05F
:100740000F48006810494861262204215C2001F00E
:10075000FFFA3521002002F099F900E000BF00BF48
:1007600008480078401C07490870084600780628A9
:1007700004DB0020054908700249087010BD000024
:10078000B40C002000000020DC0C0020060000203B
:1007900010B500F073FA284908602848007830B195
:1007A00001280ED002281AD0032834D125E022488F
:1007B000006823490860282204211A2001F0C8FAA1
:1007C0002AE01D4800681E494860262204212A208C
:1007D00001F0BEFA3121002002F058F91CE0164861
:1007E000006817498860262204213A2001F0B0FAF7
:1007F0003221002002F04AF90EE00F48006810494B
:10080000C860262204214A2001F0A2FA33210020E8
:1008100002F03CF900E000BF00BF08480078401C2F
:100820000649087008460078042804DB00200549C2
:1008300008700249087010BDB40C002002000020AE
:10084000FC0C00200700002070B5054635B1012DD5
:100850000FD0022D18D0032D2CD120E0002000F065
:10086000EBF9C0F30B04012000F0E6F940EA044480
:1008700021E0022000F0E0F9C0F30B04032000F0B7
:10088000DBF940EA044416E0042000F0D5F9C0F397
:100890000B04052000F0D0F940EA04440BE00620E8
:1008A00000F0CAF9C0F30B04072000F0C5F940EAD4
:1008B000044400E000BF00BF24F07044204670BD37
:1008C00010B500F05AF800F085F87E2000F0B4F979
:1008D000044645F2494084424BD1FB223421082092
:1008E00001F02CFDFB223421092001F027FDFB2221
:1008F00034210A2001F022FD1B220021102001F0EA
:100900001DFD1B220021112001F018FD1B220021DA
:10091000122001F013FD02222021142001F00EFD0F
:1009200002222021152001F009FD0222202116209B
:1009300001F004FD002278211E2001F0FFFC0022BE
:1009400078211F2001F0FAFC00227821202001F0FC
:10095000F5FC00221146192001F0F0FC0D22C22105
:100960001B2001F0EBFC012214211A2001F0E6FC0F
:1009700001E0012010BD0020FCE7704710B5002009
:100980000E4908600E48006820F0F0000C4908602D
:100990000846006840F03000086000200949C1F8AE
:1009A000A40100F011F801200449086000F00CF8DF
:1009B00000200449C1F8A00110BD0000A08121421F
:1009C000040C01400080214210B5022002F04CF9D5
:1009D00010BD000008B50121082001F0BFFB4FF455
:1009E0008070ADF8000010208DF8030003208DF812
:1009F000020069460D4800F095F94FF480710B48EC
:100A000000F06FFA4FF40070ADF8000010208DF880
:100A1000030003208DF802006946044800F082F9C3
:100A20004FF40071014800F05CFA08BD000C014071
:100A300010B500200E4908600E48006820F0F00054
:100A40000C4908600846006840F03000086001204A
:100A50000949C1F8A401FFF7B7FF01200449086064
:100A6000FFF7B2FF00200449C1F8A00110BD00004B
:100A7000A0812142040C01400080214270B505464E
:100A800000241648006820F0F00014490860084669
:100A9000006840F080000860002614E00020104943
:100AA0000860FFF791FF01200E49C1F8A001600620
:100AB000040E0B487C38006808B1601CC4B2FFF714
:100AC00083FF701CC6B2082EE8DB15B9FFF7B0FF34
:100AD00001E0FFF753FF204670BD0000040C014009
:100AE000A08121420080214270B50446124800686E
:100AF00020F0F000104908600846006840F030001F
:100B0000086000200D490860002512E0E0090B494B
:100B1000091D08606006040E01200949C1F8A00102
:100B2000FFF752FF002005490860FFF74DFF681CE2
:100B3000C5B2082DEADB70BD040C0140A081214242
:100B40000080214210B50E48006820F0F0000C49EA
:100B500008600846006840F030000860012009493C
:100B600008600949C1F8A001FFF72EFF00200549E0
:100B70000860FFF729FF00200349C1F8A00110BD5C
:100B8000040C0140A48121420080214210B50E488E
:100B9000006820F0F0000C4908600846006840F04A
:100BA000300008600020094908600949C1F8A40123
:100BB000FFF70AFF0120054908600549C1F8A401B3
:100BC000FFF702FF10BD0000040C0140A08121428C
:100BD0000080214210B500241448006820F0F00085
:100BE000124908600846006840F080000860012053
:100BF0000F490860FFF7E8FE01200E49C1F8A00187
:100C0000FFF7E2FE07E0601CC4B2FA2C03DDFFF739
:100C1000BDFF012010BD0648803800680028F2D1D1
:100C20000349091F086000BFF4E70000040C0140FD
:100C3000A48121420080214270B50546FFF782FF62
:100C40005420FFF751FFFFF7C5FF2846FFF74CFF81
:100C5000FFF7C0FFFFF776FF5520FFF745FFFFF7CF
:100C6000B9FF0120FFF70AFF04020020FFF706FF8B
:100C70000443FFF78BFF204670BD000010B5002431
:100C800000BF09E015480068154941F824006420B8
:100C900001F0C4FF601CC4B20A2CF3DB0A21104827
:100CA00001F079FB00200E490860012409E00C4A9C
:100CB00052F824101068FFF735FA09490860601CE3
:100CC000C4B2092CF3DB064908684FF08241FFF7F4
:100CD00081FA034908600846006810BD1C00002026
:100CE000B40C002030B500228B071C0F0F2303FA31
:100CF00004F20B4B8C1053F824309343084C8D10A6
:100D000044F8253023468C1053F824308C07240FE8
:100D100000FA04F42343024C8D1044F8253030BD12
:100D2000080001402DE9F041024600250026002080
:100D300000230024002791F803C00CF00F0591F860
:100D400003C00CF0100CBCF1000F03D091F802C0EE
:100D50004CEA050591F800C0BCF1000F31D01468D1
:100D600000202BE04FF0010C0CFA00F3B1F800C0AA
:100D70000CEA03069E4220D183004FF00F0C0CFAC0
:100D800003F7BC4305FA03FC4CEA040491F803C0E2
:100D9000BCF1280F06D14FF0010C0CFA00FCC2F890
:100DA00014C00AE091F803C0BCF1480F05D14FF020
:100DB000010C0CFA00FCC2F810C0401C0828D1D36A
:100DC0001460B1F800C0BCF1FF0F34DD546800209E
:100DD0002EE000F1080C4FF0010808FA0CF3B1F80E
:100DE00000C00CEA03069E4221D183004FF00F0C95
:100DF0000CFA03F7BC4305FA03FC4CEA040491F82F
:100E000003C0BCF1280F05D100F1080C08FA0CF85A
:100E1000C2F8148091F803C0BCF1480F07D100F16B
:100E2000080C4FF0010808FA0CF8C2F81080401CBA
:100E30000828CED35460BDE8F0810000F0B50A4622
:100E4000002300240021002500F00046B6F1004FE9
:100E500002D11D4EF16901E01B4E7168C0F30345DC
:100E600083B200F44016B6F5401F08D121F070613E
:100E7000154E766826F07066134F7E6012E000F41F
:100E80008016B6F5801F06D1032606FA05F4A143A5
:100E900041F0706106E0460D360103FA06F6B143F3
:100EA00041F0706122B1460D360103FA06F6314376
:100EB00000F00046B6F1004F02D1034EF16101E0AF
:100EC000014E7160F0BD00000000014002460020AC
:100ED00093680B400BB1012000E000207047416196
:100EE00070470161704700BFFEE7000010B50120A8
:100EF0000A49086001F0B8FE01200949C1F88401DF
:100F000001F0B2FE002005490860012001F0ACFEAE
:100F100000200349C1F8840110BD00008001214276
:100F20000000214210B500200A490860012001F0AC
:100F30009BFE00200849C1F88401012001F094FEC5
:100F400001200449086001F08FFE01200249C1F828
:100F5000840110BD800121420000214210B52A48C1
:100F600001682A480068FFF797F901D8002010BDF2
:100F70002748016825480068FFF78EF908D82548FA
:100F8000016822480068FFF77DF901D20120EEE7F1
:100F9000214801681D480068FFF77EF908D81F48FE
:100FA00001681A480068FFF76DF901D20220DEE7F8
:100FB0001B48016815480068FFF76EF908D8194802
:100FC000016812480068FFF75DF901D20320CEE7FF
:100FD000154801680D480068FFF75EF908D8134806
:100FE00001680A480068FFF74DF901D20420BEE706
:100FF0000D48016805480068FFF744F901D2052053
:10100000B5E70020B3E700005C0C00201C000020C6
:10101000640C0020600C00206C0C0020680C002088
:10102000740C0020700C00207C0C0020780C002038
:101030002DE9F0470024D3480568D3480668D34813
:101040000768D348D0F80080D248D0F80090D24941
:101050004869D249FFF766F8D1490860CE49486926
:101060004FF07E51FFF7B0F8C6490860CA490869D9
:101070004FF07E51FFF756F8CA490860C649086923
:101080004FF07E51FFF7A0F8BF490860C249C86819
:101090004FF07E51FFF746F8C3490860BE49C86863
:1010A0004FF07E51FFF790F8B8490860BA49886858
:1010B0004FF07E51FFF736F8BC490860B6498868A2
:1010C0004FF07E51FFF780F8B1490860B249486897
:1010D0004FF07E51FFF726F8B5490860AE494868E1
:1010E0004FF07E51FFF770F8AA490860AA490868D6
:1010F0004FF07E51FFF716F8AE490860A649086820
:10110000A649FFF761F8AC490860A64801689D4808
:101110000068FFF759F882460021FFF7B3F819D2AB
:10112000A048016897480068FFF74EF882464FF0E4
:101130008041FFF74FF8044621469A480068FEF7C1
:10114000F1FF9049086021462846FFF73DF8954990
:10115000086019E0934801688A480068FFF734F88E
:1011600082464FF08041FFF735F804462146854816
:101170000068FFF729F8834908602146894800681C
:10118000FEF7D0FF87490860874801687E480068FD
:10119000FFF71AF882460021FFF774F819D2824847
:1011A000016879480068FFF70FF882464FF08041E8
:1011B000FFF710F8044621467B480068FEF7B2FFAF
:1011C0007149086021463046FEF7FEFF7649086007
:1011D00019E0754801686C480068FEF7F5FF824623
:1011E0004FF08041FEF7F6FF04462146664800684E
:1011F000FEF7EAFF6449086021466B480068FEF785
:1012000091FF694908606948016860480068FEF715
:10121000DBFF82460021FFF735F819D263480168E9
:101220005A480068FEF7D0FF82464FF08041FEF733
:10123000D1FF044621465D480068FEF773FF53491D
:10124000086021463846FEF7BFFF5849086019E09C
:10125000564801684D480068FEF7B6FF82464FF0D9
:101260008041FEF7B7FF0446214648480068FEF774
:10127000ABFF4649086021464C480068FEF752FF24
:101280004A4908604A48016841480068FEF79CFFE7
:1012900082460021FEF7F6FF19D2454801683C4816
:1012A0000068FEF791FF82464FF08041FEF792FF03
:1012B000044621463E480068FEF734FF3449086082
:1012C00021464046FEF780FF3949086019E038485A
:1012D00001682F480068FEF777FF82464FF0804193
:1012E000FEF778FF0446214629480068FEF76CFFA8
:1012F0002749086021462E480068FEF713FF2C4955
:1013000008602C48016823480068FEF75DFF8246AC
:101310000021FEF7B7FF19D2264801681D48006872
:10132000FEF752FF82464FF08041FEF753FF04461E
:10133000214620480068FEF7F5FE16490860214660
:101340004846FEF741FF1B49086019E0194801684B
:1013500010480068FEF738FF82464FF08041FEF7E4
:1013600039FF044621460B480068FEF72DFF094966
:10137000086021460F480068FEF7D4FE0D4908605A
:10138000BDE8F0875C0C0020640C00206C0C002091
:10139000740C00207C0C0020DC0C00200000A0401D
:1013A000580C0020600C0020680C0020700C0020FD
:1013B000780C0020800C0020840C002010B51A4806
:1013C00001681A480068FEF767FF01D8002010BDC9
:1013D0001748016815480068FEF75EFF08D81548F1
:1013E000016812480068FEF74DFF01D20120EEE7C8
:1013F000114801680D480068FEF74EFF08D80F48F5
:1014000001680A480068FEF73DFF01D20220DEE7CE
:101410000948016805480068FEF734FF01D203203F
:10142000D5E70020D3E700008C0C00201C00002032
:10143000940C0020900C00209C0C0020980C0020A4
:101440002DE9F041002481480568814806688148FB
:1014500007688149C8688149FEF764FE80490860D1
:101460007D49C8684FF07E51FEF7AEFE77490860AF
:10147000794988684FF07E51FEF754FE794908603B
:10148000754988684FF07E51FEF79EFE70490860EE
:10149000714948684FF07E51FEF744FE724908607A
:1014A0006D4948684FF07E51FEF78EFE694908602D
:1014B000694908684FF07E51FEF734FE6B490860B9
:1014C000654908686549FEF77FFE69490860654817
:1014D00001685E480068FEF777FE80460021FEF74F
:1014E000D1FE19D25F48016858480068FEF76CFECB
:1014F00080464FF08041FEF76DFE04462146594874
:101500000068FEF70FFE5149086021462846FEF7A5
:101510005BFE5449086019E0524801684B48006876
:10152000FEF752FE80464FF08041FEF753FE044620
:10153000214646480068FEF747FE444908602146B8
:1015400048480068FEF7EEFD4649086046480168D5
:101550003F480068FEF738FE80460021FEF792FE05
:1015600019D2414801683A480068FEF72DFE8046CE
:101570004FF08041FEF72EFE044621463A480068AF
:10158000FEF7D0FD3249086021463046FEF71CFECA
:101590003549086019E0344801682D480068FEF7B5
:1015A00013FE80464FF08041FEF714FE04462146AC
:1015B00027480068FEF708FE2549086021462A48AA
:1015C0000068FEF7AFFD28490860284801682148F7
:1015D0000068FEF7F9FD80460021FEF753FE19D2A0
:1015E000224801681B480068FEF7EEFD80464FF078
:1015F0008041FEF7EFFD044621461C480068FEF7D7
:1016000091FD1449086021463846FEF7DDFD174973
:10161000086019E0154801680E480068FEF7D4FD1F
:1016200080464FF08041FEF7D5FD0446214609482B
:101630000068FEF7C9FD0749086021460B480068AD
:10164000FEF770FD09490860BDE8F0818C0C0020B0
:10165000940C00209C0C0020FC0C00200000A040FA
:10166000880C0020900C0020980C0020A00C00207A
:10167000A40C002008B501210C2000F06FFD012111
:101680000C48FFF7DBFB4FF41840ADF80000482092
:101690008DF8030069460848FFF744FBE020ADF8E9
:1016A000000048208DF8030069460448FFF73AFB24
:1016B00008BD00000002300000080140000C01409D
:1016C00008B50121202000F049FD10208DF803000D
:1016D00003208DF802000420ADF80000694604489C
:1016E000FFF720FB04210248FFF7FBFB08BD0000C9
:1016F0000014014010B517480068401C15490860E7
:1017000008460068B0F5967F01DB002008601148AC
:101710000068642805DA01230FA219465C2000F056
:10172000A1FB0C480068642809DB0A480068C82847
:1017300005DA012309A219465C2000F093FB054855
:101740000068C82805DB012305A219465C2000F0CB
:1017500089FB10BD300000202E2020002E2E2000FE
:101760002E2E2E0000BFFEE77047000070B500214E
:1017700000230F22C47804B3154C246804F4E064F9
:10178000C4F5E064210AC1F10403CA40447804FAB4
:1017900003F184781440214309010E4C0678A155C9
:1017A000047804F01F050124AC4005786D11AD00EC
:1017B00005F1E025C5F8004109E0047804F01F05B3
:1017C0000124AC40044D0678761145F8264070BDE2
:1017D0000CED00E000E400E080E100E0024901439C
:1017E000024A1160704700000000FA050CED00E0AD
:1017F00070B50646002415E004F1B001C8B200F04F
:10180000A7FB012000F0A4FB102000F0A1FB0025A5
:1018100004E0304600F0ACFB681CC5B2802DF8DB5C
:10182000601CC4B2082CE7DB70BD000008B50121C4
:10183000042000F093FC0320ADF8000010208DF888
:10184000030003208DF8020069460448FFF76AFA96
:1018500003210248FFF745FB08BD000000080140D6
:101860002DE9F0470446884615464FF0000900264A
:10187000002720E0E85D203800F0FF097E2C04DD21
:10188000002408F1010000F0FF084146204600F066
:101890004BFA002609E009EB4901094A02EB410134
:1018A000885D00F065FB701CC6B2062EF3DBA01D40
:1018B000C4B2781CC7B2E85D0028DBD1BDE8F08770
:1018C000203200082DE9F04706460F4690460025D5
:1018D0000024A14631E018F809002038C5B2782E5E
:1018E00002DD0026781CC7B23946304600F01CFAEB
:1018F000002407E004EB0511134A505C00F038FBAC
:10190000601CC4B2082CF5DB781CC1B2304600F074
:101910000BFA002408E004EB051108310A4A505C78
:1019200000F026FB601CC4B2082CF4DB06F10800B2
:10193000C6B209F1010000F0FF0918F809000028FB
:10194000C9D1BDE8F08700004E34000870B50546E7
:101950000E461446C54800682844C4490860C44877
:1019600000683044C2490860C0480068002802DAB4
:101970000020BE490860BD480068022802DD022040
:10198000BA490860BA480068002803DB6FF003001A
:10199000B7490860B648006810F1040F03DA4FF049
:1019A000FF30B3490860B1480068002828D1401EC4
:1019B000AF4908600120AF4908700020FFF718FF09
:1019C00000F036FE0123ACA20321002000F04AFA09
:1019D0000123ABA20421002000F044FA0123AAA2B3
:1019E0000521002000F03EFA0123A9A206210020D3
:1019F00000F038FA0123A8A20721682000F032FA8B
:101A00009A480068012870D1002C7FD10020A3499A
:101A10000870A3490870A1490870A1490870954849
:101A20000078012802D10020FFF7E2FE0020914952
:101A300008709C4800688E490968C84209D09948D6
:101A40000078801CC1B201236FF00F024E2000F01D
:101A5000A9F900F0EDFD012393A20321002000F07D
:101A600001FA012394A20421002000F0FBF90123D4
:101A700095A20521002000F0F5F9012396A2062188
:101A8000002000F0EFF9012397A20721682000F061
:101A9000E9F97748006810F1040F27D010F1030F1F
:101AA00019D010F1020F0CD0B0F1FF3F28D1012363
:101AB0004C2203214E2000F075F90120794908607D
:101AC0001FE001234C2204214E2000F06BF902207C
:101AD0007449086015E001234C2205214E2000F0D6
:101AE00061F903206F4908600BE00FE001234C22ED
:101AF00006214E2000F056F904206A49086000E0F3
:101B000000BF00BF674800787849087077480078C0
:101B100001281AD1012C18D1022054490860012053
:101B200054490870714800784042514908600120CA
:101B30005A49087000205A490870FFF759FE0223DD
:101B40006BA20021084600F08DF968480078022851
:101B50001AD1012C18D14549086001204549087067
:101B60006248007840424249086000204B490870B2
:101B700001204B4908700020FFF73AFE02234EA2D5
:101B80000021084600F06EF958480078032838D143
:101B9000012C36D1022035490860012035490870F2
:101BA0005248007840423249086001205449087088
:101BB000002054490870FFF71BFE022352A20021A7
:101BC000084600F04FF9272204210C2000F0C0F84D
:101BD000252204211C2000F0BBF8252204212C2002
:101BE00000F0B6F8252204213C2000F0B1F82522AF
:101BF00004214C2000F0ACF8252204215C2000F0E8
:101C0000A7F83A48007804282FD1012C2DD10220C2
:101C1000164908600120174908703448007840428E
:101C200013490860002036490870012035490870C2
:101C30000020FFF7DDFD022337A20021084600F057
:101C400011F9272204211A2000F082F8252204210C
:101C50002A2000F07DF8252204213A2000F078F8AF
:101C6000252204214A2000F073F870BD20000020D6
:101C7000500C00204D0C00204348303A200000005A
:101C80004348313A200000004348323A2000000027
:101C90004348333A20000000312F32000800002072
:101CA00009000020540C0020312E4A756467654EEF
:101CB000756D202000000000322E4A75646765466D
:101CC0006973742000000000332E547261696E4EF7
:101CD000756D202000000000342E547261696E463C
:101CE0006973742000000000322F32004C0C002079
:101CF000312E4A756467654E756D20202000000006
:101D00000600002007000020332E547261696E4ED9
:101D1000756D202020000000342E547261696E46DB
:101D2000697374202000000070B504460D4605F16B
:101D3000B001C8B200F00CF9102141EA141000F013
:101D400007F904F00F0141F0010000F001F970BD46
:101D50002DE9F04180460E46174600247D013146AC
:101D60004046FFF7E1FF00BF06E00D49485D00F087
:101D7000FFF86D1C601CC4B2102CF6DB701CC1B2E5
:101D80004046FFF7D1FF002406E00549485D00F01A
:101D9000EFF86D1C601CC4B2102CF6DBBDE8F081BE
:101DA0008C0200202DE9F04706460F4690469946E2
:101DB00000250024B9F1010F03D0B9F1020F49D178
:101DC0001AE008F11000C5B27E2E02DD0026781C54
:101DD000C7B239463046FFF7A7FF002409E005EBFC
:101DE00045011E4A02EB4101085D00F0C1F8601C8C
:101DF000C4B2062CF3DB2DE008F11000C5B2782E3A
:101E000002DD0026781CC7B239463046FFF78CFF4A
:101E1000002407E004EB0511114A505C00F0A8F81B
:101E2000601CC4B2082CF5DB781CC1B23046FFF749
:101E30007BFF002408E004EB05110831084A505CE0
:101E400000F096F8601CC4B2082CF4DB06F1080020
:101E5000C6B200BF00BFBDE8F08700002032000816
:101E60004E3400082DE9F0470646894617469A4643
:101E70004FF0000800240025BAF1010F03D0BAF199
:101E8000020F5ED125E020E0785D203800F0FF08E9
:101E90007E2E04DD002609F1010000F0FF0949460D
:101EA0003046FFF741FF002409E008EB4801264ACD
:101EB00002EB4101085D00F05BF8601CC4B2062C27
:101EC000F3DBB01DC6B2681CC5B2785D0028DBD15B
:101ED00037E032E0785D203800F0FF08782E04DD2E
:101EE000002609F1010000F0FF0949463046FFF7DE
:101EF0001BFF002407E004EB0811144A505C00F0BB
:101F000037F8601CC4B2082CF5DB09F10100C1B23E
:101F10003046FFF709FF002408E004EB0811083100
:101F20000A4A505C00F024F8601CC4B2082CF4DBB0
:101F300006F10800C6B2681CC5B2785D0028C9D198
:101F400000BF00BFBDE8F087203200084E34000813
:101F500010B50446FEF7CAFF782000F099FC002077
:101F600000F096FC204600F093FCFEF7DBFF10BD6E
:101F700010B50446FEF7BAFF782000F089FC402037
:101F800000F086FC204600F083FCFEF7CBFF10BD7E
:101F900010B5FFF74BFC642000F040FEAE20FFF7C9
:101FA000D7FF0020FFF7D4FF1020FFF7D1FF40201C
:101FB000FFF7CEFF8120FFF7CBFFC820FFF7C8FF58
:101FC000A120FFF7C5FFC820FFF7C2FFA620FFF73B
:101FD000BFFFA820FFF7BCFF3F20FFF7B9FFD320CA
:101FE000FFF7B6FF0020FFF7B3FFD520FFF7B0FFE4
:101FF0008020FFF7ADFFD920FFF7AAFFF120FFF700
:10200000A7FFDA20FFF7A4FF1220FFF7A1FFDB20D4
:10201000FFF79EFF4020FFF79BFF2020FFF798FF70
:102020000220FFF795FF8D20FFF792FF1420FFF7A6
:102030008FFFA420FFF78CFFA620FFF789FFAF20BA
:10204000FFF786FF0020FFF7D3FB00210846FFF7CC
:102050006BFE10BDFEB506460F4614461D46002019
:102060008DF809000A20B4FBF0F100FB114030307C
:102070008DF808000A20B4FBF0F4B4FBF0F100FB8B
:10208000114030308DF807000A20B4FBF0F4B4FBA7
:10209000F0F100FB114030308DF806000A20B4FB4F
:1020A000F0F4B4FBF0F100FB114030308DF8050086
:1020B0000A20B4FBF0F4B4FBF0F100FB1140303027
:1020C0008DF804000A20B4FBF0F4B4FBF0F100FB3F
:1020D000114030308DF803000A20B4FBF0F4B4FB5B
:1020E000F0F100FB114030308DF802000A20B4FB03
:1020F000F0F4B4FBF0F100FB114030308DF801003A
:102100000A20B4FBF0F4B4FBF0F100FB11403030D6
:102110008DF8000015B1012D0CD105E06A46394655
:102120003046FFF79DFB06E06A4639463046FFF72A
:10213000C9FB00E000BF00BFFEBD704729B1064AE1
:10214000D2690243044BDA6104E0034AD269824354
:10215000014BDA61704700000010024029B1064AC5
:1021600092690243044B9A6104E0034A92698243F4
:10217000014B9A61704700000010024030B5002109
:102180000022002400232D4D6D6805F00C0121B1C3
:10219000042905D0082923D105E0294D056022E056
:1021A000274D05601FE0254D6D6805F47012234D25
:1021B0006D6805F48034022505EB92421CB9214D6F
:1021C000554305600BE01D4D6D6805F400351DB1EC
:1021D0001C4D5543056002E0194D5543056002E072
:1021E000174D056000BF00BF144D6D6805F0F0018C
:1021F0000909154D6B5C0568DD4045600F4D6D6844
:1022000005F4E061090A104D6B5C4568DD408560AE
:102210000A4D6D6805F46051C90A0B4D6B5C456849
:10222000DD40C560054D6D6805F44041890B074DE3
:102230006B5CC568B5FBF3F5056130BD001002406D
:1022400000127A0000093D004800002058000020DC
:10225000704710B500F002F810BD00000CB500206A
:10226000019000903348006840F4803031490860A4
:1022700000BF3048006800F4003000900198401C16
:102280000190009818B90198B0F5A06FF1D12948D4
:10229000006800F4003010B10120009001E000203F
:1022A00000900098012843D12348006840F01000B6
:1022B000214908600846006820F0030008600846CD
:1022C000006840F0020008601A48406819494860F8
:1022D0000846406848600846406840F480604860AE
:1022E0000846406820F47C1048600846406840F486
:1022F000E81048600846006840F08070086000BF41
:102300000C48006800F000700028F9D009484068C7
:1023100020F00300074948600846406840F002008A
:10232000486000BF0348406800F00C000828F9D15D
:102330000CBD0000001002400020024070B50646AF
:102340000C461546FEF7FEFB5420FEF7CDFBFEF7CC
:1023500041FC18B1FEF71AFC012070BD3046FEF7B3
:10236000C3FBFEF737FC2046FEF7BEFBFEF732FC50
:1023700018B1FEF70BFC0120EFE72846FEF7B4FB8F
:10238000FEF728FC18B1FEF701FC0120E5E7FEF797
:10239000FDFB0020E1E72DE9F04105460E46002750
:1023A000002400BF1DE0002415E04FF00008621C6F
:1023B00055F8221055F82400FDF76EFF09D255F8A4
:1023C0002480601C55F8200045F82400601C45F866
:1023D0002080601CC4B2F01B401EA042E5DC781CCB
:1023E000C7B2701EB842DEDCBDE8F081042808D117
:1023F0004FF0E021096941F004014FF0E022116142
:1024000007E04FF0E021096921F004014FF0E022DC
:10241000116170477047000010B51348006840F024
:1024200001001149086008464068104908400E49FB
:102430004860084600680E4908400B490860084695
:10244000006820F4802008600846406820F4FE0000
:1024500048604FF41F008860FFF7FBFE4FF00060FC
:102460000449086010BD0000001002400000FFF8A1
:10247000FFFFF6FE08ED00E070B54FF08040008AE7
:1024800000F0010058B30020FDF7BAFF18490860BA
:102490000120FDF7B5FF174908600220FDF7B0FFE6
:1024A000154908600320FDF7ABFF14490860114887
:1024B00001680F480068FDF735FE06460E480168C2
:1024C0003046FDF72FFE05460C4801682846FDF70B
:1024D00029FE04460A49FDF77DFE0A4908604FF0CF
:1024E0008040008A20F001004FF08041088270BDDA
:1024F0000C00002010000020140000201800002014
:1025000000401C461C0000207FB505460C460121FA
:102510000846FFF713FEADF80850ADF80440002060
:10252000ADF80A00ADF8060001A94FF0804000F0B8
:102530002DF801221146900700F01FF81C208DF89D
:10254000000000208DF801008DF8020001208DF8B8
:1025500003006846FFF70AF90121880700F001F837
:102560007FBD21B1028842F00102028004E00288AE
:102570004FF6FE731A40028070471AB183890B43ED
:10258000838102E083898B43838170470022028824
:102590001D4B98420ED01D4B98420BD0B0F1804F8E
:1025A00008D01B4B984205D01A4B984202D01A4BC8
:1025B000984204D14FF68F731A404B881A43174B39
:1025C000984207D0164B984204D04FF6FF431A406A
:1025D000CB881A4302808B8883850B8803850A4B3E
:1025E00098420BD0094B984208D00E4B984205D028
:1025F0000D4B984202D00D4B984201D10B7A0386C5
:102600000123838270470000002C01400034014008
:102610000004004000080040000C00400010004092
:1026200000140040004001400044014000480140C7
:1026300010B5002211461020FFF78AFB012200216D
:102640002020FFF785FB022200213020FFF780FBCE
:10265000032200214020FFF77BFB042200215020B1
:10266000FFF776FB052200216020FFF771FB10BD0C
:1026700010B540F225510C4800F035F890B10A48E9
:1026800000F0ECF8C4B209480949098844540848E4
:102690000088401C0649088008460088C72801DDDC
:1026A0000020088010BD0000003801401C0D0020F3
:1026B000AC0C002021B1828942F40052828104E0F6
:1026C00082894DF6FF731A408281704702460020CE
:1026D000B1F5007F00D100BF13880B400BB1012082
:1026E00000E00020704770B502460024002300255A
:1026F000002040F66A16B14200D100BFC1F3421576
:1027000001F01F03012606FA03F3012D02D1968979
:10271000334006E0022D02D1168A334001E0968A4A
:1027200033400C12012606FA04F41688344013B123
:102730000CB1012000E0002070BDF0B5034600247C
:1027400000260025002040F66A17B94200D100BFDC
:102750001846C1F3421401F01F06012707FA06F5D7
:10276000012C01D10C3004E0022C01D1103000E02A
:1027700014301AB107682F43076002E00768AF43BF
:102780000760F0BD2DE9F04786B005460E460024EF
:10279000A24600BFA1460027B08900B100BF2F4666
:1027A0002C8A4CF6FF700440F08804432C82AC89DC
:1027B0004EF6F3100440B08831890843718908430C
:1027C0000443AC81AC8A4FF6FF400440B089044317
:1027D000AC8201A8FFF7D2FC1F48874202D1DDF886
:1027E00010A001E0DDF80CA0A88900F4004040B181
:1027F0000AEBCA0000EB0A1031684900B0FBF1F89F
:1028000007E00AEBCA0000EB0A1031688900B0FB50
:10281000F1F86420B8FBF0F004012009642101FB09
:102820001089A88900F4004040B1322000EBC900B3
:10283000B0FBF1F000F00700044308E0322000EBA9
:1028400009106421B0FBF1F000F00F0004432C816B
:1028500006B0BDE8F08700000038014001468888D6
:10286000C0F308007047C1F308028280704700BFC0
:10287000FEE770B504460D4629462046FFF7F3FFF4
:1028800000BF80212046FFF721FF0028F9D070BD4E
:1028900070B5044600251DE004F0800018B1012049
:1028A0001349086002E0002011490860012000F08F
:1028B000DBF901200E49091D086000F0D5F9002060
:1028C0000C49C1F88401012000F0CEF96006040E25
:1028D000681CC5B2082DDFDB01200549091D086011
:1028E00000F0C2F900200349C1F8840170BD000066
:1028F00080012142000021420FB4054B10B503A90D
:10290000044A029800F018F810BC5DF814FB0000AF
:10291000B52C0008A80C002002E008C8121F08C14E
:10292000002AFAD170477047002001E001C1121F50
:10293000002AFBD1704700002DE9FF4F89B09B466C
:102940000446002506E025280BD05A460B999047EF
:10295000641C6D1C20780028F5D10DB02846BDE818
:10296000F08F0027B8460122474900E0074314F8DA
:10297000013F203B02FA03F00842F7D120782E28CD
:1029800019D114F8010F47F004072A280ED06FF070
:102990002F022078A0F1300109290CD808EB88011A
:1029A00002EB410100EB0108641CF2E70A98641C89
:1029B00050F8048B0A9020780028CED0642808D0E4
:1029C000692806D075281ED05A460B9990476D1C71
:1029D00058E00A994FF00A0901C90A91002802DA61
:1029E00040422D2102E0390504D52B218DF820101D
:1029F000012103E0F90704D02021F7E78A4608AE59
:102A00000DE00021FAE70A994FF00A0901C90A917D
:102A1000F7E74946FDF74AFC303106F8011D00286A
:102A2000F7D1ADEB060000F12009780701D44FF093
:102A30000108C84502DDA8EB090000E0002080463F
:102A4000002706E008A85A46C05D0B9990476D1C08
:102A50007F1C5745F6DB04E030205A460B9990471F
:102A60006D1CB8F10001A8F10108F5DC05E016F8CD
:102A7000010B5A460B9990476D1CB9F10001A9F161
:102A80000109F4DC641C65E7092801002DE9F04127
:102A900005460E46002415B1012D7DD148E0314692
:102AA0004748FFF7E6FE0D214548FFF7E2FE002408
:102AB00037E044480068FDF7D0FB42F21071B0FBEC
:102AC000F1F7394640A0FFF717FF40480068FDF7CF
:102AD000C4FB42F21071B0FBF1F739463AA0FFF7A0
:102AE0000BFF3B480068FDF7B8FB42F21071B0FBEA
:102AF000F1F7394634A0FFF7FFFE36480068FDF7CE
:102B0000ACFB42F21071B0FBF1F739462EA0FFF793
:102B1000F3FE0D212A48FFF7ACFEFEF7AFF8601C6C
:102B2000C4B20A2CC5DB44212548FFF7A2FE43E0CE
:102B3000002439E023480068FDF78FFB42F2107152
:102B4000B0FBF1F7394620A0FFF7D6FE1F4800681A
:102B5000FDF783FB42F21071B0FBF1F739461AA082
:102B6000FFF7CAFE1A480068FDF777FB42F21071C2
:102B7000B0FBF1F7394614A0FFF7BEFE1548006818
:102B8000FDF76BFB42F21071B0FBF1F739460EA076
:102B9000FFF7B2FE0D2100E00DE00948FFF769FEE6
:102BA000FEF76CF8601CC4B20A2CC3DB4421044855
:102BB000FFF75FFE00E000BF00BFBDE8F08100004E
:102BC000003801400C000020256420001000002087
:102BD000140000201800002010B56FF00400FFF76B
:102BE00005FC0A4800680A49B0FBF1F00949087081
:102BF0000846007800EB4001C1EBC0104FF6FF71B2
:102C000001EAC0000449088010BD00003400002023
:102C100000127A00AE0C0020B00C00200146114AD0
:102C200012884A434FF0E0235A6100229A611A4603
:102C3000126942F001021A6100BF4FF0E0221069F0
:102C400000F001021AB100F48032002AF5D04FF0F2
:102C5000E022126922F001024FF0E0231A61002203
:102C60009A617047B00C00200146114A12784A431D
:102C70004FF0E0235A6100229A611A46126942F02D
:102C800001021A6100BF4FF0E022106900F001025A
:102C90001AB100F48032002AF5D04FF0E022126918
:102CA00022F001024FF0E0231A6100229A6170477E
:102CB000AE0C002000BF054A128802F04002002A34
:102CC000F9D0C2B2014B1B1D1A8070470038014079
:102CD0000EB501210846FFF741FAFEF7CBFC0C21A7
:102CE0000020FDF7FFFF4FF48050019000208DF889
:102CF00008000C208DF8090001208DF80A0001A8B9
:102D0000FDF780FC0B210020FDF7ECFF4FF4006085
:102D1000019000208DF808000C208DF8090001209A
:102D20008DF80A0001A8FDF76DFC06210120FDF7D2
:102D3000D9FF4020019000208DF808000C208DF86C
:102D4000090001208DF80A0001A8FDF75BFC0F21A6
:102D50000020FDF7C7FF4FF40040019000208DF8E0
:102D600008000C208DF8090001208DF80A0001A848
:102D7000FDF748FC05210120FDF7B4FF202001905C
:102D800000208DF808000C208DF8090001208DF836
:102D90000A0001A8FDF736FC07210120FDF7A2FF7C
:102DA0008020019000208DF808000C208DF809008B
:102DB00001208DF80A0001A8FDF724FC17208DF8EA
:102DC000000002208DF8010000208DF80200012093
:102DD0008DF803006846FEF7C9FC28208DF8000036
:102DE00002208DF8010000208DF8020001208DF8EE
:102DF00003006846FEF7BAFC0EBD0000FFF7ECFECC
:102E00004FF4A060FEF7EAFC4FF4E13000F0B8F9AF
:102E100041F61F414F20FFF777FBFDF7D3FAFEF78E
:102E200065F8FFF7B5F8FEF74BFCFEF723FCFFF75C
:102E30004FFF00BFFDF744FD0028FBD1B5490860F6
:102E40000A20FFF7EBFE0120B349C1F8A00164207E
:102E5000FFF7E4FEFFF7ECFB5AE10020AF49086002
:102E6000AF48006858BBAF480068FDF7F6F9044664
:102E70000023224603211C20FFF7ECF8AA48006833
:102E8000FDF7EBF904460023224604211C20FFF73E
:102E9000E1F8A6480068FDF7E0F904460023224661
:102EA00005211C20FFF7D6F8A1480068FDF7D5F9E9
:102EB00004460023224606211C20FFF7CBF89D483C
:102EC0000078012818D19648006810B900209A4966
:102ED0000860994802689948016899480068FEF7B7
:102EE00035FD0020944908609249087095490870A2
:102EF000924908609249086000209249087019E0E0
:102F0000002091490870FEF7F5FB8E4800780128F3
:102F100004D1FDF7C1FB00208A49087000208649D2
:102F20000860022085490860012082490870801EDF
:102F300083490860854800780028E1D184480078FA
:102F400078B1002005E00021824A42F82010411C9F
:102F5000C8B20628F7DB00217D4A1170774A11605C
:102F600000BF7D48007801284ED17748007828B905
:102F700006217848FFF70FFAFEF75AF8FDF7EEFF43
:102F8000062832D2DFE800F0030E151C232A232284
:102F900004213420FEF7DCFE232205213420FEF735
:102FA000D7FE23E002236DA204213420FEF75AFF4E
:102FB0001CE002236AA204213420FEF753FF15E02F
:102FC000022368A204213420FEF74CFF0EE0022306
:102FD00065A204213420FEF745FF07E0022363A227
:102FE00004213420FEF73EFF00E000BF00BF55483B
:102FF0000078012805D13021FFF748FD0020514914
:10300000087001205049087019E0FEF773FB00209A
:103010004D4908704B480078012804D1FDF7B8FBF2
:1030200000204849087000204349086002204349B5
:10303000086001203F490870801E414908604C48E3
:1030400000780028E1D14B48007878B1002005E0F5
:103050000021494A42F82010411CC8B20428F7DB7D
:103060000021444A1170354A116000BF434800787E
:1030700001284DD13448007828B904213E48FFF793
:103080008AF9FEF7DDF9FEF799F930B101280FD082
:10309000022818D003282CD120E02322052130203B
:1030A000FEF756FE232205214020FEF751FE21E0C7
:1030B0001E2205213020FEF74BFE1F220521402055
:1030C000FEF746FE16E0202205213020FEF740FEE6
:1030D000212205214020FEF73BFE0BE022220521A4
:1030E0003020FEF735FE232205214020FEF730FE7A
:1030F00000E000BF00BF13480078012805D130214F
:10310000FFF7C4FC00200F49087001200E49087029
:10311000A3E60000A001214200002142300000206F
:10312000200000200C0000201000002014000020CF
:1031300018000020040000202400002028000020A7
:103140002C000020050000200A00002006000020BE
:1031500000000020DC0C00200800002031000000EE
:103160003200000033000000340000003500000091
:103170000700002002000020FC0C002009000020B5
:1031800010B586B00446012144F20400FEF7E6FFC4
:103190004FF40070ADF8140003208DF816001820CD
:1031A0008DF8170005A91C48FDF7BCFD4FF48060A1
:1031B000ADF8140004208DF8170005A91648FDF796
:1031C000B1FD25208DF8000003208DF801008DF859
:1031D000020001208DF803006846FEF7C7FA01944B
:1031E0000020ADF80800ADF80A00ADF80C00ADF80D
:1031F00010000C20ADF80E0001A90848FFF7C2FA34
:10320000012240F225510548FFF797FA01210348B2
:10321000FFF750FA06B010BD000801400038014029
:103220000000000000000000002F00000000070068
:10323000070000147F147F1400242A7F2A120062E2
:10324000640813230036495522500000050300008E
:1032500000001C224100000041221C000014083E16
:1032600008140008083E0808000000A060000008DC
:103270000808080800006060000000201008040230
:10328000003E5149453E0000427F400000426151EE
:103290004946002141454B31001814127F10002788
:1032A00045454539003C4A4949300001710905034B
:1032B00000364949493600064949291E000036367C
:1032C00000000000563600000008142241000014DF
:1032D00014141414000041221408000201510906BC
:1032E00000324959513E007C1211127C007F49493D
:1032F0004936003E41414122007F4141221C007F6E
:1033000049494941007F09090901003E4149497A7B
:10331000007F0808087F0000417F410000204041F5
:103320003F01007F08142241007F40404040007F61
:10333000020C027F007F0408107F003E4141413EA5
:10334000007F09090906003E4151215E007F0919ED
:1033500029460046494949310001017F0101003FEA
:103360004040403F001F2040201F003F4038403F6A
:1033700000631408146300070870080700615149CE
:10338000454300007F41410000552A552A55000061
:1033900041417F00000402010204004040404040DF
:1033A000000001020400002054545478007F484477
:1033B000443800384444442000384444487F0038AE
:1033C0005454541800087E0901020018A4A4A47CD7
:1033D000007F080404780000447D400000408084A1
:1033E0007D00007F102844000000417F4000007CE9
:1033F00004180478007C08040478003844444438F5
:1034000000FC242424180018242418FC007C080440
:10341000040800485454542000043F444020003C19
:103420004040207C001C2040201C003C4030403CA0
:10343000004428102844001CA0A0A07C0044645430
:103440004C4414141414141418245A5A2418000048
:10345000000000000000000000000000000000006C
:1034600000F80000000000000033300000000010F1
:103470000C06100C0600000000000000000040C018
:103480007840C0784000043F04043F04040000700A
:1034900088FC08300000001820FF211E0000F00802
:1034A000F000E018000000211C031E211E0000F0A7
:1034B0000888700000001E212324192721101016EF
:1034C0000E000000000000000000000000000000EE
:1034D00000E018040200000000071820400000026D
:1034E0000418E000000000402018070000004040E1
:1034F00080F0804040000202010F01020200000043
:1035000000F0000000000101011F010101000000A6
:1035100000000000000080B070000000000000000B
:103520000000000000000001010101010101000094
:10353000000000000000003030000000000000002B
:10354000000080601804006018060100000000E020
:1035500010080810E000000F102020100F000010CD
:1035600010F8000000000020203F20200000007024
:10357000080808887000003028242221300000301C
:103580000888884830000018202020110E00000014
:10359000C02010F8000000070424243F240000F895
:1035A0000888880808000019212020110E0000E07A
:1035B000108888180000000F112020110E0000381C
:1035C0000808C83808000000003F00000000007034
:1035D000880808887000001C222121221C0000E0BD
:1035E00010080810E0000000312222110F00000036
:1035F00000C0C000000000000030300000000000EB
:10360000008000000000000080600000000000005A
:1036100080402010080000010204081020004040F3
:103620004040404040000404040404040400000836
:1036300010204080000000201008040201000070EB
:1036400048080808F0000000003036010000C030D3
:10365000C828E810E0000718272423140B000000F6
:10366000C038E0000000203C23020227382008F880
:10367000888888700000203F202020110E00C03074
:10368000080808083800071820202010080008F84B
:1036900008080810E000203F202020100F0008F844
:1036A0008888E8081000203F20202320180008F810
:1036B0008888E8081000203F200003000000C03088
:1036C00008080838000007182020221E020008F809
:1036D00008000008F808203F210101213F200008D0
:1036E00008F8080800000020203F2020000000000B
:1036F0000808F8080800C08080807F00000008F8F3
:1037000088C028180800203F20012638200008F82B
:10371000080000000000203F20202020300008F892
:10372000F800F8F80800203F003F003F200008F8AC
:1037300030C00008F808203F200007183F00E010C4
:1037400008080810E0000F10202020100F0008F8D3
:1037500008080808F000203F210101010000E010E6
:1037600008080810E0000F18242438504F0008F80B
:10377000888888887000203F2000030C302000706B
:103780008808080838000038202121221C00180869
:1037900008F8080818000000203F2000000008F882
:1037A00008000008F808001F202020201F000878CB
:1037B000880000C83808000007380E010000F8082B
:1037C00000F80008F800033C0700073C0300081855
:1037D00068808068180820302C03032C30200838BB
:1037E000C800C83808000000203F20000000100872
:1037F0000808C838080020382621202018000000BA
:1038000000FE020202000000007F40404000000C69
:1038100030C000000000000000010638C0000002B7
:103820000202FE000000004040407F000000000057
:10383000040202020400000000000000000000007A
:103840000000000000008080808080808080000276
:103850000204000000000000000000000000000062
:103860008080808000000019242222223F2008F856
:10387000008080000000003F112020110E00000099
:10388000008080800000000E112020201100000028
:1038900000808088F800000E112020103F200000DA
:1038A000808080800000001F2222222213000080DE
:1038B00080F0888888180020203F20200000000029
:1038C000808080808000006B94949493600008F85E
:1038D000008080800000203F210000203F200080E9
:1038E0009898000000000020203F202000000000E9
:1038F00000809898000000C08080807F000008F859
:10390000000080808000203F24022D30200000082D
:1039100008F8000000000020203F202000008080E8
:10392000808080808000203F20003F20003F8080FA
:10393000008080800000203F210000203F20000008
:10394000808080800000001F202020201F008080B9
:1039500000808000000080FFA12020110E000000E8
:10396000008080808000000E112020A0FF808080D9
:1039700080008080800020203F2120000100000086
:10398000808080808000003324242424190000805B
:1039900080E0808000000000001F20200000808068
:1039A000000000808000001F202020103F20808029
:1039B00080000080808000010E30080601008080B9
:1039C0000080008080800F300C030C300F000080DE
:1039D0008000808080000020312E0E312000808009
:1039E00080000080808080818E7018060100008039
:1039F0008080808080000021302C22213000000057
:103A00000000807C020200000000003F40400000F7
:103A10000000FF00000000000000FF0000000002A6
:103A2000027C800000000040403F000000000006D3
:103A30000101020204040000000000000000000078
:103A4000603A000800000020B40C00006C0300087D
:103A50004C400008B40C0020340500002829000860
:103A60001112300330300184A24A046809010203B4
:103A700004060708090C6910A502040608676666B3
:103A800018186666A7F008040408F0B707081010B5
:103A90000807D40808FCA610101F1010A73804044B
:103AA0000484789F18141211101810A604848444FA
:103AB00038B70C101010110EACC02018619008031C
:103AC0000212121F12127EFC44444484E04940A9B1
:103AD000A0CFF08844444880C09B100F30C6040437
:103AE000C4340CD21FCB3844A0CB0E11A01AF8E07E
:103AF000B388F0AC09111180119CE01C707F800923
:103B0000101E110101131C102A04C09AB820CA1FEC
:103B1000C01BE0186093041C3A03E089F01B04FC0E
:103B20001F8A0880E94090082020C0F8C020201398
:103B300001012A070589211BE03C03A11C021F0289
:103B400003591C111210200FE81F262021222224C5
:103B5000E423082010381BFC07174440FF3F2A24A9
:103B6000012FFC22222223223A29013C42827F0893
:103B70001A024316444424FF141724A47F8404FC2F
:103B800022C0100F88894A29180E0A094888483827
:103B9000010335404042CC29C11A042141180C3F91
:103BA00010884023190101091123301C3E22E25CD8
:103BB000223E22F822FF18088141310F4181417ACB
:103BC000250F40807F1640422410FF1E8444444449
:103BD0007F0412042010222212120AFE42270A1227
:103BE00022324A424218081715D55557557D041CF4
:103BF000D51517304D40407F55011A7F0C11180C18
:103C000040221408F402445454547F0412442C08F3
:103C100044825D1FFF15151555956011280E20284B
:103C2000AA6C28382FA8A8ECAA2820E03A111A1E5E
:103C30001414141011E0580A202020FF20221490A0
:103C400010A0580A404020130C142241F8A0091E6D
:103C500040112B222C425B28264018080282422267
:103C60001A070201594014020CC01D080808FF047D
:103C700019221940180E7F804121110D030D1121C9
:103C8000418181703342CC193A3AFE06311E3F1011
:103C900088601F073910180F2030AC633004A4640B
:103CA0003C27E40404046F380F6722121220110D20
:103CB00041817F010509302018082018084848482C
:103CC0007F044A082012122BFE42011953313DFE97
:103CD0009292920441101044442425140C04FF04D1
:103CE0000C1425244444180A08049392969A92FAD4
:103CF00094071AFAD0200F4040472424140CFF04E4
:103D0000042444241C801080804020100804C30434
:103D100008102040808049AA41BA4001011319F9D6
:103D2000690131CA1001218B04840119E0CA200104
:103D3000211AFCF77904312D7F2824231A362122F9
:103D400022227F1A02E82BC27EEE1AC2BF398F3BB5
:103D500078478C2A7F90180E1010D0FF9014E4AF93
:103D6000A4A4A4AFE4601B0403BC180B894B2A1A5B
:103D70000E1A2A4B8880202A900118081010FF1074
:103D8000101116902D2060203F991B030CF11AF89A
:103D9000501B42CC85280824A4242222A362F028A8
:103DA0000D201F20584750484542454850F0500CC0
:103DB000FE0202F2121212F20202FE280B7F2020F3
:103DC000272424242720209F613AFF91292E490986
:103DD000299B4912162030AC6330193C260202623E
:103DE0005AC6001013226722121240308F80432CD3
:103DF000102C4380C336361A02013DC2B28E8201B6
:103E00001302025D080402016E5340FF1D1060049E
:103E1000188271181081814141211109070105099A
:103E20001121C101401EFAAAABAAFAC41B03020663
:103E300021500D888B48281A0B080848884A3B1ADD
:103E400004012AFC054304FC1F804020180601C918
:103E50003480403F280A080888C8A8988FE888015D
:103E60001308081302012917196F042410201F28B2
:103E70000F1088C433404848487F48C848484040ED
:103E800012FF1808020A320242827FDB415BF80807
:103E90000162F85B1F100159607AF801592079011D
:103EA000612CC020103E641020C02C0304083E5C2E
:103EB000080403202BE0F03D6BF0E0202B070F3DC2
:103EC0003B0F0720100A03050911FF118905C312D2
:103ED000E012F0596311073D4428FF11AA44700B0A
:103EE000830138448292927401831E7C44C7017D11
:103EF00001990562FF9A0102818A010B013669412D
:103F00009949FA0101A12A4001212A6D01212A6063
:103F100001791501642ADB010915072ADA01212A32
:103F2000D801212AC0010915072A800101352A0676
:103F3000010918071CE66620076A86157A861C2A7E
:103F40008601180A80808686068686C0C00C0E1CF4
:103F50000606D030764D2907013113601C12FE137E
:103F600001021009C41820029E63B20E1DFF818158
:103F7000FFF24440300F12FF180923EAAABFAAEA51
:103F8000033F0B012DBC808080080115240E0C0816
:103F90002A01013149041D81808081021901B9176C
:103FA00006110101090C0E0A14C0012178081E2116
:103FB000404050215E08012A4DFFFFC1C104092382
:103FC0002D181580FCF3EFF3FC80FF80EEEEEEF58C
:103FD000FBFF9CBEB6B6883A27E010080810E02721
:103FE0000F102020100F541010F83620203F2020F2
:103FF000277008080888701F302824222130081DE7
:1040000008888848082E1820202011E83BC020325C
:1040100027070424243F241AF8202308084B1921D9
:104020002036E0108888184B0F11101E380808C879
:10403000382021523F1A702E29608F1C2221212204
:0C4040001C90111D31222211900167001C
:04000005080000ED02
:00000001FF
